{
  "_format": "hh-sol-artifact-1",
  "contractName": "accessController",
  "sourceName": "contracts/controller.sol",
  "abi": [
    {
      "inputs": [],
      "stateMutability": "nonpayable",
      "type": "constructor"
    },
    {
      "anonymous": false,
      "inputs": [
        {
          "indexed": true,
          "internalType": "address",
          "name": "account",
          "type": "address"
        },
        {
          "indexed": true,
          "internalType": "address",
          "name": "operator",
          "type": "address"
        },
        {
          "indexed": false,
          "internalType": "bool",
          "name": "approved",
          "type": "bool"
        }
      ],
      "name": "ApprovalForAll",
      "type": "event"
    },
    {
      "anonymous": false,
      "inputs": [
        {
          "indexed": false,
          "internalType": "address",
          "name": "account",
          "type": "address"
        },
        {
          "indexed": false,
          "internalType": "uint256",
          "name": "ticket",
          "type": "uint256"
        }
      ],
      "name": "BurnTicket",
      "type": "event"
    },
    {
      "anonymous": false,
      "inputs": [
        {
          "indexed": false,
          "internalType": "address",
          "name": "addr",
          "type": "address"
        },
        {
          "indexed": false,
          "internalType": "uint256",
          "name": "amount",
          "type": "uint256"
        }
      ],
      "name": "NewTicket",
      "type": "event"
    },
    {
      "anonymous": false,
      "inputs": [
        {
          "indexed": true,
          "internalType": "address",
          "name": "previousOwner",
          "type": "address"
        },
        {
          "indexed": true,
          "internalType": "address",
          "name": "newOwner",
          "type": "address"
        }
      ],
      "name": "OwnershipTransferred",
      "type": "event"
    },
    {
      "anonymous": false,
      "inputs": [
        {
          "indexed": false,
          "internalType": "address",
          "name": "account",
          "type": "address"
        }
      ],
      "name": "Paused",
      "type": "event"
    },
    {
      "anonymous": false,
      "inputs": [
        {
          "indexed": false,
          "internalType": "address",
          "name": "from",
          "type": "address"
        },
        {
          "indexed": false,
          "internalType": "address",
          "name": "to",
          "type": "address"
        },
        {
          "indexed": false,
          "internalType": "uint256",
          "name": "id",
          "type": "uint256"
        }
      ],
      "name": "Transfer",
      "type": "event"
    },
    {
      "anonymous": false,
      "inputs": [
        {
          "indexed": true,
          "internalType": "address",
          "name": "operator",
          "type": "address"
        },
        {
          "indexed": true,
          "internalType": "address",
          "name": "from",
          "type": "address"
        },
        {
          "indexed": true,
          "internalType": "address",
          "name": "to",
          "type": "address"
        },
        {
          "indexed": false,
          "internalType": "uint256[]",
          "name": "ids",
          "type": "uint256[]"
        },
        {
          "indexed": false,
          "internalType": "uint256[]",
          "name": "values",
          "type": "uint256[]"
        }
      ],
      "name": "TransferBatch",
      "type": "event"
    },
    {
      "anonymous": false,
      "inputs": [
        {
          "indexed": false,
          "internalType": "address",
          "name": "from",
          "type": "address"
        },
        {
          "indexed": false,
          "internalType": "address",
          "name": "to",
          "type": "address"
        },
        {
          "indexed": false,
          "internalType": "uint256",
          "name": "id",
          "type": "uint256"
        }
      ],
      "name": "TransferError",
      "type": "event"
    },
    {
      "anonymous": false,
      "inputs": [
        {
          "indexed": true,
          "internalType": "address",
          "name": "operator",
          "type": "address"
        },
        {
          "indexed": true,
          "internalType": "address",
          "name": "from",
          "type": "address"
        },
        {
          "indexed": true,
          "internalType": "address",
          "name": "to",
          "type": "address"
        },
        {
          "indexed": false,
          "internalType": "uint256",
          "name": "id",
          "type": "uint256"
        },
        {
          "indexed": false,
          "internalType": "uint256",
          "name": "value",
          "type": "uint256"
        }
      ],
      "name": "TransferSingle",
      "type": "event"
    },
    {
      "anonymous": false,
      "inputs": [
        {
          "indexed": false,
          "internalType": "string",
          "name": "value",
          "type": "string"
        },
        {
          "indexed": true,
          "internalType": "uint256",
          "name": "id",
          "type": "uint256"
        }
      ],
      "name": "URI",
      "type": "event"
    },
    {
      "anonymous": false,
      "inputs": [
        {
          "indexed": false,
          "internalType": "address",
          "name": "account",
          "type": "address"
        }
      ],
      "name": "Unpaused",
      "type": "event"
    },
    {
      "inputs": [],
      "name": "asicTicket",
      "outputs": [
        {
          "internalType": "uint256",
          "name": "",
          "type": "uint256"
        }
      ],
      "stateMutability": "view",
      "type": "function"
    },
    {
      "inputs": [
        {
          "internalType": "address",
          "name": "account",
          "type": "address"
        },
        {
          "internalType": "uint256",
          "name": "id",
          "type": "uint256"
        }
      ],
      "name": "balanceOf",
      "outputs": [
        {
          "internalType": "uint256",
          "name": "",
          "type": "uint256"
        }
      ],
      "stateMutability": "view",
      "type": "function"
    },
    {
      "inputs": [
        {
          "internalType": "address[]",
          "name": "accounts",
          "type": "address[]"
        },
        {
          "internalType": "uint256[]",
          "name": "ids",
          "type": "uint256[]"
        }
      ],
      "name": "balanceOfBatch",
      "outputs": [
        {
          "internalType": "uint256[]",
          "name": "",
          "type": "uint256[]"
        }
      ],
      "stateMutability": "view",
      "type": "function"
    },
    {
      "inputs": [
        {
          "internalType": "address",
          "name": "account",
          "type": "address"
        },
        {
          "internalType": "uint256",
          "name": "ticketType",
          "type": "uint256"
        },
        {
          "internalType": "uint256",
          "name": "amount",
          "type": "uint256"
        }
      ],
      "name": "burnNFT",
      "outputs": [],
      "stateMutability": "nonpayable",
      "type": "function"
    },
    {
      "inputs": [],
      "name": "cameraModuleTicket",
      "outputs": [
        {
          "internalType": "uint256",
          "name": "",
          "type": "uint256"
        }
      ],
      "stateMutability": "view",
      "type": "function"
    },
    {
      "inputs": [],
      "name": "checkId",
      "outputs": [
        {
          "internalType": "bool[]",
          "name": "",
          "type": "bool[]"
        }
      ],
      "stateMutability": "view",
      "type": "function"
    },
    {
      "inputs": [
        {
          "internalType": "address",
          "name": "account",
          "type": "address"
        },
        {
          "internalType": "address",
          "name": "operator",
          "type": "address"
        }
      ],
      "name": "isApprovedForAll",
      "outputs": [
        {
          "internalType": "bool",
          "name": "",
          "type": "bool"
        }
      ],
      "stateMutability": "view",
      "type": "function"
    },
    {
      "inputs": [
        {
          "internalType": "address",
          "name": "from",
          "type": "address"
        },
        {
          "internalType": "address",
          "name": "to",
          "type": "address"
        },
        {
          "internalType": "uint256",
          "name": "ticketType",
          "type": "uint256"
        }
      ],
      "name": "marketTransfer",
      "outputs": [],
      "stateMutability": "nonpayable",
      "type": "function"
    },
    {
      "inputs": [],
      "name": "microprocessorTicket",
      "outputs": [
        {
          "internalType": "uint256",
          "name": "",
          "type": "uint256"
        }
      ],
      "stateMutability": "view",
      "type": "function"
    },
    {
      "inputs": [
        {
          "internalType": "address",
          "name": "account",
          "type": "address"
        },
        {
          "internalType": "uint256",
          "name": "ticketType",
          "type": "uint256"
        },
        {
          "internalType": "uint256",
          "name": "amount",
          "type": "uint256"
        }
      ],
      "name": "mintNFT",
      "outputs": [],
      "stateMutability": "nonpayable",
      "type": "function"
    },
    {
      "inputs": [],
      "name": "name",
      "outputs": [
        {
          "internalType": "string",
          "name": "",
          "type": "string"
        }
      ],
      "stateMutability": "view",
      "type": "function"
    },
    {
      "inputs": [
        {
          "internalType": "address",
          "name": "",
          "type": "address"
        },
        {
          "internalType": "address",
          "name": "",
          "type": "address"
        },
        {
          "internalType": "uint256[]",
          "name": "",
          "type": "uint256[]"
        },
        {
          "internalType": "uint256[]",
          "name": "",
          "type": "uint256[]"
        },
        {
          "internalType": "bytes",
          "name": "",
          "type": "bytes"
        }
      ],
      "name": "onERC1155BatchReceived",
      "outputs": [
        {
          "internalType": "bytes4",
          "name": "",
          "type": "bytes4"
        }
      ],
      "stateMutability": "nonpayable",
      "type": "function"
    },
    {
      "inputs": [
        {
          "internalType": "address",
          "name": "",
          "type": "address"
        },
        {
          "internalType": "address",
          "name": "",
          "type": "address"
        },
        {
          "internalType": "uint256",
          "name": "",
          "type": "uint256"
        },
        {
          "internalType": "uint256",
          "name": "",
          "type": "uint256"
        },
        {
          "internalType": "bytes",
          "name": "",
          "type": "bytes"
        }
      ],
      "name": "onERC1155Received",
      "outputs": [
        {
          "internalType": "bytes4",
          "name": "",
          "type": "bytes4"
        }
      ],
      "stateMutability": "nonpayable",
      "type": "function"
    },
    {
      "inputs": [],
      "name": "owner",
      "outputs": [
        {
          "internalType": "address",
          "name": "",
          "type": "address"
        }
      ],
      "stateMutability": "view",
      "type": "function"
    },
    {
      "inputs": [],
      "name": "pause",
      "outputs": [],
      "stateMutability": "nonpayable",
      "type": "function"
    },
    {
      "inputs": [],
      "name": "paused",
      "outputs": [
        {
          "internalType": "bool",
          "name": "",
          "type": "bool"
        }
      ],
      "stateMutability": "view",
      "type": "function"
    },
    {
      "inputs": [],
      "name": "renounceOwnership",
      "outputs": [],
      "stateMutability": "nonpayable",
      "type": "function"
    },
    {
      "inputs": [],
      "name": "resistorTicket",
      "outputs": [
        {
          "internalType": "uint256",
          "name": "",
          "type": "uint256"
        }
      ],
      "stateMutability": "view",
      "type": "function"
    },
    {
      "inputs": [
        {
          "internalType": "address",
          "name": "from",
          "type": "address"
        },
        {
          "internalType": "address",
          "name": "to",
          "type": "address"
        },
        {
          "internalType": "uint256[]",
          "name": "ids",
          "type": "uint256[]"
        },
        {
          "internalType": "uint256[]",
          "name": "amounts",
          "type": "uint256[]"
        },
        {
          "internalType": "bytes",
          "name": "data",
          "type": "bytes"
        }
      ],
      "name": "safeBatchTransferFrom",
      "outputs": [],
      "stateMutability": "nonpayable",
      "type": "function"
    },
    {
      "inputs": [
        {
          "internalType": "address",
          "name": "from",
          "type": "address"
        },
        {
          "internalType": "address",
          "name": "to",
          "type": "address"
        },
        {
          "internalType": "uint256",
          "name": "id",
          "type": "uint256"
        },
        {
          "internalType": "uint256",
          "name": "amount",
          "type": "uint256"
        },
        {
          "internalType": "bytes",
          "name": "data",
          "type": "bytes"
        }
      ],
      "name": "safeTransferFrom",
      "outputs": [],
      "stateMutability": "nonpayable",
      "type": "function"
    },
    {
      "inputs": [
        {
          "internalType": "address",
          "name": "operator",
          "type": "address"
        },
        {
          "internalType": "bool",
          "name": "approved",
          "type": "bool"
        }
      ],
      "name": "setApprovalForAll",
      "outputs": [],
      "stateMutability": "nonpayable",
      "type": "function"
    },
    {
      "inputs": [
        {
          "internalType": "bytes4",
          "name": "interfaceId",
          "type": "bytes4"
        }
      ],
      "name": "supportsInterface",
      "outputs": [
        {
          "internalType": "bool",
          "name": "",
          "type": "bool"
        }
      ],
      "stateMutability": "view",
      "type": "function"
    },
    {
      "inputs": [],
      "name": "symbol",
      "outputs": [
        {
          "internalType": "string",
          "name": "",
          "type": "string"
        }
      ],
      "stateMutability": "view",
      "type": "function"
    },
    {
      "inputs": [
        {
          "internalType": "address",
          "name": "newOwner",
          "type": "address"
        }
      ],
      "name": "transferOwnership",
      "outputs": [],
      "stateMutability": "nonpayable",
      "type": "function"
    },
    {
      "inputs": [],
      "name": "unpause",
      "outputs": [],
      "stateMutability": "nonpayable",
      "type": "function"
    },
    {
      "inputs": [
        {
          "internalType": "uint256",
          "name": "_tokenid",
          "type": "uint256"
        }
      ],
      "name": "uri",
      "outputs": [
        {
          "internalType": "string",
          "name": "",
          "type": "string"
        }
      ],
      "stateMutability": "pure",
      "type": "function"
    }
  ],
  "bytecode": "0x60806040526040518060400160405280601b81526020017f4e6f6e46756e6769626c65547275737420436f6e74726f6c6c65720000000000815250600490805190602001906200005192919062000205565b506040518060400160405280600781526020017f4e46547275737400000000000000000000000000000000000000000000000000815250600590805190602001906200009f92919062000205565b50348015620000ad57600080fd5b506040518060600160405280603f815260200162004d24603f9139620000d9816200011b60201b60201c565b50620000fa620000ee6200013760201b60201c565b6200013f60201b60201c565b6000600360146101000a81548160ff0219169083151502179055506200031a565b80600290805190602001906200013392919062000205565b5050565b600033905090565b6000600360009054906101000a900473ffffffffffffffffffffffffffffffffffffffff16905081600360006101000a81548173ffffffffffffffffffffffffffffffffffffffff021916908373ffffffffffffffffffffffffffffffffffffffff1602179055508173ffffffffffffffffffffffffffffffffffffffff168173ffffffffffffffffffffffffffffffffffffffff167f8be0079c531659141344cd1fd0a4f28419497f9722a3daafe3b4186f6b6457e060405160405180910390a35050565b8280546200021390620002b5565b90600052602060002090601f01602090048101928262000237576000855562000283565b82601f106200025257805160ff191683800117855562000283565b8280016001018555821562000283579182015b828111156200028257825182559160200191906001019062000265565b5b50905062000292919062000296565b5090565b5b80821115620002b157600081600090555060010162000297565b5090565b60006002820490506001821680620002ce57607f821691505b60208210811415620002e557620002e4620002eb565b5b50919050565b7f4e487b7100000000000000000000000000000000000000000000000000000000600052602260045260246000fd5b6149fa806200032a6000396000f3fe608060405234801561001057600080fd5b506004361061018d5760003560e01c80635d3273b9116100de578063bc197c8111610097578063e985e9c511610071578063e985e9c51461043a578063f23a6e611461046a578063f242432a1461049a578063f2fde38b146104b65761018d565b8063bc197c81146103d0578063bcf0dd8e14610400578063d07883bd1461041c5761018d565b80635d3273b914610346578063715018a6146103645780638456cb591461036e5780638da5cb5b1461037857806395d89b4114610396578063a22cb465146103b45761018d565b80633f4ba83a1161014b5780634b4b33b6116101255780634b4b33b6146102be5780634e1273f4146102dc5780635a9d10a21461030c5780635c975abb146103285761018d565b80633f4ba83a14610278578063469f5c4114610282578063495b6106146102a05761018d565b8062fdd58e1461019257806301ffc9a7146101c257806306fdde03146101f25780630e89341c146102105780631cc509fd146102405780632eb2c2d61461025c575b600080fd5b6101ac60048036038101906101a79190612f6c565b6104d2565b6040516101b99190613bfe565b60405180910390f35b6101dc60048036038101906101d79190613063565b61059b565b6040516101e99190613886565b60405180910390f35b6101fa6105f5565b60405161020791906138bc565b60405180910390f35b61022a600480360381019061022591906130b5565b610683565b60405161023791906138bc565b60405180910390f35b61025a60048036038101906102559190612fa8565b6106b4565b005b61027660048036038101906102719190612d93565b6107c1565b005b610280610862565b005b61028a61092f565b604051610297919061380b565b60405180910390f35b6102a8610af4565b6040516102b59190613bfe565b60405180910390f35b6102c6610af9565b6040516102d39190613bfe565b60405180910390f35b6102f660048036038101906102f19190612ff7565b610afe565b604051610303919061382d565b60405180910390f35b61032660048036038101906103219190612fa8565b610caf565b005b610330610dcc565b60405161033d9190613886565b60405180910390f35b61034e610de3565b60405161035b9190613bfe565b60405180910390f35b61036c610de8565b005b610376610e70565b005b610380610f3e565b60405161038d91906136ce565b60405180910390f35b61039e610f68565b6040516103ab91906138bc565b60405180910390f35b6103ce60048036038101906103c99190612f30565b610ff6565b005b6103ea60048036038101906103e59190612d93565b61100c565b6040516103f791906138a1565b60405180910390f35b61041a60048036038101906104159190612e52565b611021565b005b61042461125d565b6040516104319190613bfe565b60405180910390f35b610454600480360381019061044f9190612d57565b611262565b6040516104619190613886565b60405180910390f35b610484600480360381019061047f9190612ea1565b6112f6565b60405161049191906138a1565b60405180910390f35b6104b460048036038101906104af9190612ea1565b61130b565b005b6104d060048036038101906104cb9190612d2e565b6113ac565b005b60008073ffffffffffffffffffffffffffffffffffffffff168373ffffffffffffffffffffffffffffffffffffffff161415610543576040517f08c379a000000000000000000000000000000000000000000000000000000000815260040161053a90613a1e565b60405180910390fd5b60008083815260200190815260200160002060008473ffffffffffffffffffffffffffffffffffffffff1673ffffffffffffffffffffffffffffffffffffffff16815260200190815260200160002054905092915050565b60006105a5610dcc565b156105e5576040517f08c379a00000000000000000000000000000000000000000000000000000000081526004016105dc906139de565b60405180910390fd5b6105ee826114a4565b9050919050565b6004805461060290613f16565b80601f016020809104026020016040519081016040528092919081815260200182805461062e90613f16565b801561067b5780601f106106505761010080835404028352916020019161067b565b820191906000526020600020905b81548152906001019060200180831161065e57829003601f168201915b505050505081565b606061068e82611586565b60405160200161069e91906136a1565b6040516020818303038152906040529050919050565b6106bc611733565b73ffffffffffffffffffffffffffffffffffffffff166106da610f3e565b73ffffffffffffffffffffffffffffffffffffffff1614610730576040517f08c379a000000000000000000000000000000000000000000000000000000000815260040161072790613abe565b60405180910390fd5b610738610dcc565b15610778576040517f08c379a000000000000000000000000000000000000000000000000000000000815260040161076f9061395e565b60405180910390fd5b61078383838361173b565b7f51a0dfc08d1118a59ab8573f0a90324436979aadf30097c05159f4a7899a997783836040516107b49291906137e2565b60405180910390a1505050565b6107c9611733565b73ffffffffffffffffffffffffffffffffffffffff168573ffffffffffffffffffffffffffffffffffffffff16148061080f575061080e85610809611733565b611262565b5b61084e576040517f08c379a0000000000000000000000000000000000000000000000000000000008152600401610845906138fe565b60405180910390fd5b61085b8585858585611982565b5050505050565b61086a611733565b73ffffffffffffffffffffffffffffffffffffffff16610888610f3e565b73ffffffffffffffffffffffffffffffffffffffff16146108de576040517f08c379a00000000000000000000000000000000000000000000000000000000081526004016108d590613abe565b60405180910390fd5b6108e6610dcc565b610925576040517f08c379a000000000000000000000000000000000000000000000000000000000815260040161091c90613afe565b60405180910390fd5b61092d611cf0565b565b6060610939610dcc565b15610979576040517f08c379a000000000000000000000000000000000000000000000000000000000815260040161097090613b1e565b60405180910390fd5b6000600467ffffffffffffffff8111156109bc577f4e487b7100000000000000000000000000000000000000000000000000000000600052604160045260246000fd5b6040519080825280602002602001820160405280156109ea5781602001602082028036833780820191505090505b50905060005b6004811015610aec5760003073ffffffffffffffffffffffffffffffffffffffff1662fdd58e33846040518363ffffffff1660e01b8152600401610a359291906137e2565b60206040518083038186803b158015610a4d57600080fd5b505afa158015610a61573d6000803e3d6000fd5b505050506040513d601f19601f82011682018060405250810190610a8591906130de565b1115610ad9576001828281518110610ac6577f4e487b7100000000000000000000000000000000000000000000000000000000600052603260045260246000fd5b6020026020010190151590811515815250505b8080610ae490613f79565b9150506109f0565b508091505090565b600281565b600181565b60608151835114610b44576040517f08c379a0000000000000000000000000000000000000000000000000000000008152600401610b3b90613b7e565b60405180910390fd5b6000835167ffffffffffffffff811115610b87577f4e487b7100000000000000000000000000000000000000000000000000000000600052604160045260246000fd5b604051908082528060200260200182016040528015610bb55781602001602082028036833780820191505090505b50905060005b8451811015610ca457610c4e858281518110610c00577f4e487b7100000000000000000000000000000000000000000000000000000000600052603260045260246000fd5b6020026020010151858381518110610c41577f4e487b7100000000000000000000000000000000000000000000000000000000600052603260045260246000fd5b60200260200101516104d2565b828281518110610c87577f4e487b7100000000000000000000000000000000000000000000000000000000600052603260045260246000fd5b60200260200101818152505080610c9d90613f79565b9050610bbb565b508091505092915050565b610cb7611733565b73ffffffffffffffffffffffffffffffffffffffff16610cd5610f3e565b73ffffffffffffffffffffffffffffffffffffffff1614610d2b576040517f08c379a0000000000000000000000000000000000000000000000000000000008152600401610d2290613abe565b60405180910390fd5b610d33610dcc565b15610d73576040517f08c379a0000000000000000000000000000000000000000000000000000000008152600401610d6a90613ade565b60405180910390fd5b610d8e83838360405180602001604052806000815250611d92565b7fdece058cd7cd2ee12f875b0ca3fd9ace3c14e4a2c65c283511fe8d09be688c488382604051610dbf9291906137e2565b60405180910390a1505050565b6000600360149054906101000a900460ff16905090565b600381565b610df0611733565b73ffffffffffffffffffffffffffffffffffffffff16610e0e610f3e565b73ffffffffffffffffffffffffffffffffffffffff1614610e64576040517f08c379a0000000000000000000000000000000000000000000000000000000008152600401610e5b90613abe565b60405180910390fd5b610e6e6000611f43565b565b610e78611733565b73ffffffffffffffffffffffffffffffffffffffff16610e96610f3e565b73ffffffffffffffffffffffffffffffffffffffff1614610eec576040517f08c379a0000000000000000000000000000000000000000000000000000000008152600401610ee390613abe565b60405180910390fd5b610ef4610dcc565b15610f34576040517f08c379a0000000000000000000000000000000000000000000000000000000008152600401610f2b90613b3e565b60405180910390fd5b610f3c612009565b565b6000600360009054906101000a900473ffffffffffffffffffffffffffffffffffffffff16905090565b60058054610f7590613f16565b80601f0160208091040260200160405190810160405280929190818152602001828054610fa190613f16565b8015610fee5780601f10610fc357610100808354040283529160200191610fee565b820191906000526020600020905b815481529060010190602001808311610fd157829003601f168201915b505050505081565b611008611001611733565b83836120ac565b5050565b600063bc197c8160e01b905095945050505050565b611029611733565b73ffffffffffffffffffffffffffffffffffffffff16611047610f3e565b73ffffffffffffffffffffffffffffffffffffffff161461109d576040517f08c379a000000000000000000000000000000000000000000000000000000000815260040161109490613abe565b60405180910390fd5b6110a5610dcc565b156110e5576040517f08c379a00000000000000000000000000000000000000000000000000000000081526004016110dc90613a3e565b60405180910390fd5b6110ed610dcc565b1561112d576040517f08c379a000000000000000000000000000000000000000000000000000000000815260040161112490613bde565b60405180910390fd5b60003073ffffffffffffffffffffffffffffffffffffffff1662fdd58e85846040518363ffffffff1660e01b81526004016111699291906137e2565b60206040518083038186803b15801561118157600080fd5b505afa158015611195573d6000803e3d6000fd5b505050506040513d601f19601f820116820180604052508101906111b991906130de565b11156111ff577f76aa623111c30cd7bcd5cac4cafa674a2f181c76aa2a6b3aab613dffa1ae51db8383836040516111f293929190613751565b60405180910390a1611258565b61121c838383600160405180602001604052806000815250612219565b7fddf252ad1be2c89b69c2b068fc378daa952ba7f163c4a11628f55a4df523b3ef83838360405161124f93929190613751565b60405180910390a15b505050565b600081565b6000600160008473ffffffffffffffffffffffffffffffffffffffff1673ffffffffffffffffffffffffffffffffffffffff16815260200190815260200160002060008373ffffffffffffffffffffffffffffffffffffffff1673ffffffffffffffffffffffffffffffffffffffff16815260200190815260200160002060009054906101000a900460ff16905092915050565b600063f23a6e6160e01b905095945050505050565b611313611733565b73ffffffffffffffffffffffffffffffffffffffff168573ffffffffffffffffffffffffffffffffffffffff161480611359575061135885611353611733565b611262565b5b611398576040517f08c379a000000000000000000000000000000000000000000000000000000000815260040161138f906138fe565b60405180910390fd5b6113a58585858585612219565b5050505050565b6113b4611733565b73ffffffffffffffffffffffffffffffffffffffff166113d2610f3e565b73ffffffffffffffffffffffffffffffffffffffff1614611428576040517f08c379a000000000000000000000000000000000000000000000000000000000815260040161141f90613abe565b60405180910390fd5b600073ffffffffffffffffffffffffffffffffffffffff168173ffffffffffffffffffffffffffffffffffffffff161415611498576040517f08c379a000000000000000000000000000000000000000000000000000000000815260040161148f9061397e565b60405180910390fd5b6114a181611f43565b50565b60007fd9b67a26000000000000000000000000000000000000000000000000000000007bffffffffffffffffffffffffffffffffffffffffffffffffffffffff1916827bffffffffffffffffffffffffffffffffffffffffffffffffffffffff1916148061156f57507f0e89341c000000000000000000000000000000000000000000000000000000007bffffffffffffffffffffffffffffffffffffffffffffffffffffffff1916827bffffffffffffffffffffffffffffffffffffffffffffffffffffffff1916145b8061157f575061157e826124b5565b5b9050919050565b606060008214156115ce576040518060400160405280600181526020017f3000000000000000000000000000000000000000000000000000000000000000815250905061172e565b600082905060005b600082146116005780806115e990613f79565b915050600a826115f99190613dfb565b91506115d6565b60008167ffffffffffffffff811115611642577f4e487b7100000000000000000000000000000000000000000000000000000000600052604160045260246000fd5b6040519080825280601f01601f1916602001820160405280156116745781602001600182028036833780820191505090505b5090505b600085146117275760018261168d9190613e2c565b9150600a8561169c9190613fc2565b60306116a89190613da5565b60f81b8183815181106116e4577f4e487b7100000000000000000000000000000000000000000000000000000000600052603260045260246000fd5b60200101907effffffffffffffffffffffffffffffffffffffffffffffffffffffffffffff1916908160001a905350600a856117209190613dfb565b9450611678565b8093505050505b919050565b600033905090565b600073ffffffffffffffffffffffffffffffffffffffff168373ffffffffffffffffffffffffffffffffffffffff1614156117ab576040517f08c379a00000000000000000000000000000000000000000000000000000000081526004016117a290613a7e565b60405180910390fd5b60006117b5611733565b905060006117c28461252f565b905060006117cf8461252f565b90506117ef838760008585604051806020016040528060008152506125f5565b600080600087815260200190815260200160002060008873ffffffffffffffffffffffffffffffffffffffff1673ffffffffffffffffffffffffffffffffffffffff16815260200190815260200160002054905084811015611886576040517f08c379a000000000000000000000000000000000000000000000000000000000815260040161187d906139be565b60405180910390fd5b84810360008088815260200190815260200160002060008973ffffffffffffffffffffffffffffffffffffffff1673ffffffffffffffffffffffffffffffffffffffff16815260200190815260200160002081905550600073ffffffffffffffffffffffffffffffffffffffff168773ffffffffffffffffffffffffffffffffffffffff168573ffffffffffffffffffffffffffffffffffffffff167fc3d58168c5ae7397731d063d5bbf3d657854427343f4c083240f7aacaa2d0f628989604051611953929190613c19565b60405180910390a461197984886000868660405180602001604052806000815250612653565b50505050505050565b81518351146119c6576040517f08c379a00000000000000000000000000000000000000000000000000000000081526004016119bd90613b9e565b60405180910390fd5b600073ffffffffffffffffffffffffffffffffffffffff168473ffffffffffffffffffffffffffffffffffffffff161415611a36576040517f08c379a0000000000000000000000000000000000000000000000000000000008152600401611a2d90613a5e565b60405180910390fd5b6000611a40611733565b9050611a508187878787876125f5565b60005b8451811015611c4d576000858281518110611a97577f4e487b7100000000000000000000000000000000000000000000000000000000600052603260045260246000fd5b602002602001015190506000858381518110611adc577f4e487b7100000000000000000000000000000000000000000000000000000000600052603260045260246000fd5b60200260200101519050600080600084815260200190815260200160002060008b73ffffffffffffffffffffffffffffffffffffffff1673ffffffffffffffffffffffffffffffffffffffff16815260200190815260200160002054905081811015611b7d576040517f08c379a0000000000000000000000000000000000000000000000000000000008152600401611b7490613a9e565b60405180910390fd5b81810360008085815260200190815260200160002060008c73ffffffffffffffffffffffffffffffffffffffff1673ffffffffffffffffffffffffffffffffffffffff168152602001908152602001600020819055508160008085815260200190815260200160002060008b73ffffffffffffffffffffffffffffffffffffffff1673ffffffffffffffffffffffffffffffffffffffff1681526020019081526020016000206000828254611c329190613da5565b9250508190555050505080611c4690613f79565b9050611a53565b508473ffffffffffffffffffffffffffffffffffffffff168673ffffffffffffffffffffffffffffffffffffffff168273ffffffffffffffffffffffffffffffffffffffff167f4a39dc06d4c0dbc64b70af90fd698a233a518aa5d07e595d983b8c0526c8f7fb8787604051611cc492919061384f565b60405180910390a4611cda818787878787612653565b611ce881878787878761265b565b505050505050565b611cf8610dcc565b611d37576040517f08c379a0000000000000000000000000000000000000000000000000000000008152600401611d2e9061393e565b60405180910390fd5b6000600360146101000a81548160ff0219169083151502179055507f5db9ee0a495bf2e6ff9c91a7834c1ba4fdd244a5e8aa4e537bd38aeae4b073aa611d7b611733565b604051611d8891906136ce565b60405180910390a1565b600073ffffffffffffffffffffffffffffffffffffffff168473ffffffffffffffffffffffffffffffffffffffff161415611e02576040517f08c379a0000000000000000000000000000000000000000000000000000000008152600401611df990613bbe565b60405180910390fd5b6000611e0c611733565b90506000611e198561252f565b90506000611e268561252f565b9050611e37836000898585896125f5565b8460008088815260200190815260200160002060008973ffffffffffffffffffffffffffffffffffffffff1673ffffffffffffffffffffffffffffffffffffffff1681526020019081526020016000206000828254611e969190613da5565b925050819055508673ffffffffffffffffffffffffffffffffffffffff16600073ffffffffffffffffffffffffffffffffffffffff168473ffffffffffffffffffffffffffffffffffffffff167fc3d58168c5ae7397731d063d5bbf3d657854427343f4c083240f7aacaa2d0f628989604051611f14929190613c19565b60405180910390a4611f2b83600089858589612653565b611f3a83600089898989612842565b50505050505050565b6000600360009054906101000a900473ffffffffffffffffffffffffffffffffffffffff16905081600360006101000a81548173ffffffffffffffffffffffffffffffffffffffff021916908373ffffffffffffffffffffffffffffffffffffffff1602179055508173ffffffffffffffffffffffffffffffffffffffff168173ffffffffffffffffffffffffffffffffffffffff167f8be0079c531659141344cd1fd0a4f28419497f9722a3daafe3b4186f6b6457e060405160405180910390a35050565b612011610dcc565b15612051576040517f08c379a000000000000000000000000000000000000000000000000000000000815260040161204890613a3e565b60405180910390fd5b6001600360146101000a81548160ff0219169083151502179055507f62e78cea01bee320cd4e420270b5ea74000d11b0c9f74754ebdbfc544b05a258612095611733565b6040516120a291906136ce565b60405180910390a1565b8173ffffffffffffffffffffffffffffffffffffffff168373ffffffffffffffffffffffffffffffffffffffff16141561211b576040517f08c379a000000000000000000000000000000000000000000000000000000000815260040161211290613b5e565b60405180910390fd5b80600160008573ffffffffffffffffffffffffffffffffffffffff1673ffffffffffffffffffffffffffffffffffffffff16815260200190815260200160002060008473ffffffffffffffffffffffffffffffffffffffff1673ffffffffffffffffffffffffffffffffffffffff16815260200190815260200160002060006101000a81548160ff0219169083151502179055508173ffffffffffffffffffffffffffffffffffffffff168373ffffffffffffffffffffffffffffffffffffffff167f17307eab39ab6107e8899845ad3d59bd9653f200f220920489ca2b5937696c318360405161220c9190613886565b60405180910390a3505050565b600073ffffffffffffffffffffffffffffffffffffffff168473ffffffffffffffffffffffffffffffffffffffff161415612289576040517f08c379a000000000000000000000000000000000000000000000000000000000815260040161228090613a5e565b60405180910390fd5b6000612293611733565b905060006122a08561252f565b905060006122ad8561252f565b90506122bd8389898585896125f5565b600080600088815260200190815260200160002060008a73ffffffffffffffffffffffffffffffffffffffff1673ffffffffffffffffffffffffffffffffffffffff16815260200190815260200160002054905085811015612354576040517f08c379a000000000000000000000000000000000000000000000000000000000815260040161234b90613a9e565b60405180910390fd5b85810360008089815260200190815260200160002060008b73ffffffffffffffffffffffffffffffffffffffff1673ffffffffffffffffffffffffffffffffffffffff168152602001908152602001600020819055508560008089815260200190815260200160002060008a73ffffffffffffffffffffffffffffffffffffffff1673ffffffffffffffffffffffffffffffffffffffff16815260200190815260200160002060008282546124099190613da5565b925050819055508773ffffffffffffffffffffffffffffffffffffffff168973ffffffffffffffffffffffffffffffffffffffff168573ffffffffffffffffffffffffffffffffffffffff167fc3d58168c5ae7397731d063d5bbf3d657854427343f4c083240f7aacaa2d0f628a8a604051612486929190613c19565b60405180910390a461249c848a8a86868a612653565b6124aa848a8a8a8a8a612842565b505050505050505050565b60007f4e2312e0000000000000000000000000000000000000000000000000000000007bffffffffffffffffffffffffffffffffffffffffffffffffffffffff1916827bffffffffffffffffffffffffffffffffffffffffffffffffffffffff19161480612528575061252782612a29565b5b9050919050565b60606000600167ffffffffffffffff811115612574577f4e487b7100000000000000000000000000000000000000000000000000000000600052604160045260246000fd5b6040519080825280602002602001820160405280156125a25781602001602082028036833780820191505090505b50905082816000815181106125e0577f4e487b7100000000000000000000000000000000000000000000000000000000600052603260045260246000fd5b60200260200101818152505080915050919050565b6125fd610dcc565b1561263d576040517f08c379a00000000000000000000000000000000000000000000000000000000081526004016126349061399e565b60405180910390fd5b61264b868686868686612a93565b505050505050565b505050505050565b61267a8473ffffffffffffffffffffffffffffffffffffffff16612af1565b1561283a578373ffffffffffffffffffffffffffffffffffffffff1663bc197c8187878686866040518663ffffffff1660e01b81526004016126c09594939291906136e9565b602060405180830381600087803b1580156126da57600080fd5b505af192505050801561270b57506040513d601f19601f82011682018060405250810190612708919061308c565b60015b6127b1576127176140af565b806308c379a01415612774575061272c6148d2565b806127375750612776565b806040517f08c379a000000000000000000000000000000000000000000000000000000000815260040161276b91906138bc565b60405180910390fd5b505b6040517f08c379a00000000000000000000000000000000000000000000000000000000081526004016127a8906138de565b60405180910390fd5b63bc197c8160e01b7bffffffffffffffffffffffffffffffffffffffffffffffffffffffff1916817bffffffffffffffffffffffffffffffffffffffffffffffffffffffff191614612838576040517f08c379a000000000000000000000000000000000000000000000000000000000815260040161282f9061391e565b60405180910390fd5b505b505050505050565b6128618473ffffffffffffffffffffffffffffffffffffffff16612af1565b15612a21578373ffffffffffffffffffffffffffffffffffffffff1663f23a6e6187878686866040518663ffffffff1660e01b81526004016128a7959493929190613788565b602060405180830381600087803b1580156128c157600080fd5b505af19250505080156128f257506040513d601f19601f820116820180604052508101906128ef919061308c565b60015b612998576128fe6140af565b806308c379a0141561295b57506129136148d2565b8061291e575061295d565b806040517f08c379a000000000000000000000000000000000000000000000000000000000815260040161295291906138bc565b60405180910390fd5b505b6040517f08c379a000000000000000000000000000000000000000000000000000000000815260040161298f906138de565b60405180910390fd5b63f23a6e6160e01b7bffffffffffffffffffffffffffffffffffffffffffffffffffffffff1916817bffffffffffffffffffffffffffffffffffffffffffffffffffffffff191614612a1f576040517f08c379a0000000000000000000000000000000000000000000000000000000008152600401612a169061391e565b60405180910390fd5b505b505050505050565b60007f01ffc9a7000000000000000000000000000000000000000000000000000000007bffffffffffffffffffffffffffffffffffffffffffffffffffffffff1916827bffffffffffffffffffffffffffffffffffffffffffffffffffffffff1916149050919050565b612aa1868686868686612b14565b612aa9610dcc565b15612ae9576040517f08c379a0000000000000000000000000000000000000000000000000000000008152600401612ae0906139fe565b60405180910390fd5b505050505050565b6000808273ffffffffffffffffffffffffffffffffffffffff163b119050919050565b505050505050565b6000612b2f612b2a84613c67565b613c42565b90508083825260208201905082856020860282011115612b4e57600080fd5b60005b85811015612b7e5781612b648882612c32565b845260208401935060208301925050600181019050612b51565b5050509392505050565b6000612b9b612b9684613c93565b613c42565b90508083825260208201905082856020860282011115612bba57600080fd5b60005b85811015612bea5781612bd08882612d04565b845260208401935060208301925050600181019050612bbd565b5050509392505050565b6000612c07612c0284613cbf565b613c42565b905082815260208101848484011115612c1f57600080fd5b612c2a848285613ed4565b509392505050565b600081359050612c4181614968565b92915050565b600082601f830112612c5857600080fd5b8135612c68848260208601612b1c565b91505092915050565b600082601f830112612c8257600080fd5b8135612c92848260208601612b88565b91505092915050565b600081359050612caa8161497f565b92915050565b600081359050612cbf81614996565b92915050565b600081519050612cd481614996565b92915050565b600082601f830112612ceb57600080fd5b8135612cfb848260208601612bf4565b91505092915050565b600081359050612d13816149ad565b92915050565b600081519050612d28816149ad565b92915050565b600060208284031215612d4057600080fd5b6000612d4e84828501612c32565b91505092915050565b60008060408385031215612d6a57600080fd5b6000612d7885828601612c32565b9250506020612d8985828601612c32565b9150509250929050565b600080600080600060a08688031215612dab57600080fd5b6000612db988828901612c32565b9550506020612dca88828901612c32565b945050604086013567ffffffffffffffff811115612de757600080fd5b612df388828901612c71565b935050606086013567ffffffffffffffff811115612e1057600080fd5b612e1c88828901612c71565b925050608086013567ffffffffffffffff811115612e3957600080fd5b612e4588828901612cda565b9150509295509295909350565b600080600060608486031215612e6757600080fd5b6000612e7586828701612c32565b9350506020612e8686828701612c32565b9250506040612e9786828701612d04565b9150509250925092565b600080600080600060a08688031215612eb957600080fd5b6000612ec788828901612c32565b9550506020612ed888828901612c32565b9450506040612ee988828901612d04565b9350506060612efa88828901612d04565b925050608086013567ffffffffffffffff811115612f1757600080fd5b612f2388828901612cda565b9150509295509295909350565b60008060408385031215612f4357600080fd5b6000612f5185828601612c32565b9250506020612f6285828601612c9b565b9150509250929050565b60008060408385031215612f7f57600080fd5b6000612f8d85828601612c32565b9250506020612f9e85828601612d04565b9150509250929050565b600080600060608486031215612fbd57600080fd5b6000612fcb86828701612c32565b9350506020612fdc86828701612d04565b9250506040612fed86828701612d04565b9150509250925092565b6000806040838503121561300a57600080fd5b600083013567ffffffffffffffff81111561302457600080fd5b61303085828601612c47565b925050602083013567ffffffffffffffff81111561304d57600080fd5b61305985828601612c71565b9150509250929050565b60006020828403121561307557600080fd5b600061308384828501612cb0565b91505092915050565b60006020828403121561309e57600080fd5b60006130ac84828501612cc5565b91505092915050565b6000602082840312156130c757600080fd5b60006130d584828501612d04565b91505092915050565b6000602082840312156130f057600080fd5b60006130fe84828501612d19565b91505092915050565b60006131138383613202565b60208301905092915050565b600061312b8383613683565b60208301905092915050565b61314081613e60565b82525050565b600061315182613d10565b61315b8185613d56565b935061316683613cf0565b8060005b8381101561319757815161317e8882613107565b975061318983613d3c565b92505060018101905061316a565b5085935050505092915050565b60006131af82613d1b565b6131b98185613d67565b93506131c483613d00565b8060005b838110156131f55781516131dc888261311f565b97506131e783613d49565b9250506001810190506131c8565b5085935050505092915050565b61320b81613e72565b82525050565b61321a81613e72565b82525050565b61322981613e7e565b82525050565b600061323a82613d26565b6132448185613d78565b9350613254818560208601613ee3565b61325d816140d1565b840191505092915050565b600061327382613d31565b61327d8185613d89565b935061328d818560208601613ee3565b613296816140d1565b840191505092915050565b60006132ac82613d31565b6132b68185613d9a565b93506132c6818560208601613ee3565b80840191505092915050565b60006132df603483613d89565b91506132ea826140ef565b604082019050919050565b6000613302602f83613d89565b915061330d8261413e565b604082019050919050565b6000613325602883613d89565b91506133308261418d565b604082019050919050565b6000613348601483613d89565b9150613353826141dc565b602082019050919050565b600061336b602183613d89565b915061337682614205565b604082019050919050565b600061338e602683613d89565b915061339982614254565b604082019050919050565b60006133b1605183613d9a565b91506133bc826142a3565b605182019050919050565b60006133d4602e83613d89565b91506133df82614318565b604082019050919050565b60006133f7602483613d89565b915061340282614367565b604082019050919050565b600061341a602b83613d89565b9150613425826143b6565b604082019050919050565b600061343d602c83613d89565b915061344882614405565b604082019050919050565b6000613460602a83613d89565b915061346b82614454565b604082019050919050565b6000613483601083613d89565b915061348e826144a3565b602082019050919050565b60006134a6602583613d89565b91506134b1826144cc565b604082019050919050565b60006134c9602383613d89565b91506134d48261451b565b604082019050919050565b60006134ec602a83613d89565b91506134f78261456a565b604082019050919050565b600061350f600583613d9a565b915061351a826145b9565b600582019050919050565b6000613532602083613d89565b915061353d826145e2565b602082019050919050565b6000613555602183613d89565b91506135608261460b565b604082019050919050565b6000613578603b83613d89565b91506135838261465a565b604082019050919050565b600061359b602183613d89565b91506135a6826146a9565b604082019050919050565b60006135be603983613d89565b91506135c9826146f8565b604082019050919050565b60006135e1602983613d89565b91506135ec82614747565b604082019050919050565b6000613604602983613d89565b915061360f82614796565b604082019050919050565b6000613627602883613d89565b9150613632826147e5565b604082019050919050565b600061364a602183613d89565b915061365582614834565b604082019050919050565b600061366d602883613d89565b915061367882614883565b604082019050919050565b61368c81613eca565b82525050565b61369b81613eca565b82525050565b60006136ac826133a4565b91506136b882846132a1565b91506136c382613502565b915081905092915050565b60006020820190506136e36000830184613137565b92915050565b600060a0820190506136fe6000830188613137565b61370b6020830187613137565b818103604083015261371d81866131a4565b9050818103606083015261373181856131a4565b90508181036080830152613745818461322f565b90509695505050505050565b60006060820190506137666000830186613137565b6137736020830185613137565b6137806040830184613692565b949350505050565b600060a08201905061379d6000830188613137565b6137aa6020830187613137565b6137b76040830186613692565b6137c46060830185613692565b81810360808301526137d6818461322f565b90509695505050505050565b60006040820190506137f76000830185613137565b6138046020830184613692565b9392505050565b600060208201905081810360008301526138258184613146565b905092915050565b6000602082019050818103600083015261384781846131a4565b905092915050565b6000604082019050818103600083015261386981856131a4565b9050818103602083015261387d81846131a4565b90509392505050565b600060208201905061389b6000830184613211565b92915050565b60006020820190506138b66000830184613220565b92915050565b600060208201905081810360008301526138d68184613268565b905092915050565b600060208201905081810360008301526138f7816132d2565b9050919050565b60006020820190508181036000830152613917816132f5565b9050919050565b6000602082019050818103600083015261393781613318565b9050919050565b600060208201905081810360008301526139578161333b565b9050919050565b600060208201905081810360008301526139778161335e565b9050919050565b6000602082019050818103600083015261399781613381565b9050919050565b600060208201905081810360008301526139b7816133c7565b9050919050565b600060208201905081810360008301526139d7816133ea565b9050919050565b600060208201905081810360008301526139f78161340d565b9050919050565b60006020820190508181036000830152613a1781613430565b9050919050565b60006020820190508181036000830152613a3781613453565b9050919050565b60006020820190508181036000830152613a5781613476565b9050919050565b60006020820190508181036000830152613a7781613499565b9050919050565b60006020820190508181036000830152613a97816134bc565b9050919050565b60006020820190508181036000830152613ab7816134df565b9050919050565b60006020820190508181036000830152613ad781613525565b9050919050565b60006020820190508181036000830152613af781613548565b9050919050565b60006020820190508181036000830152613b178161356b565b9050919050565b60006020820190508181036000830152613b378161358e565b9050919050565b60006020820190508181036000830152613b57816135b1565b9050919050565b60006020820190508181036000830152613b77816135d4565b9050919050565b60006020820190508181036000830152613b97816135f7565b9050919050565b60006020820190508181036000830152613bb78161361a565b9050919050565b60006020820190508181036000830152613bd78161363d565b9050919050565b60006020820190508181036000830152613bf781613660565b9050919050565b6000602082019050613c136000830184613692565b92915050565b6000604082019050613c2e6000830185613692565b613c3b6020830184613692565b9392505050565b6000613c4c613c5d565b9050613c588282613f48565b919050565b6000604051905090565b600067ffffffffffffffff821115613c8257613c81614080565b5b602082029050602081019050919050565b600067ffffffffffffffff821115613cae57613cad614080565b5b602082029050602081019050919050565b600067ffffffffffffffff821115613cda57613cd9614080565b5b613ce3826140d1565b9050602081019050919050565b6000819050602082019050919050565b6000819050602082019050919050565b600081519050919050565b600081519050919050565b600081519050919050565b600081519050919050565b6000602082019050919050565b6000602082019050919050565b600082825260208201905092915050565b600082825260208201905092915050565b600082825260208201905092915050565b600082825260208201905092915050565b600081905092915050565b6000613db082613eca565b9150613dbb83613eca565b9250827fffffffffffffffffffffffffffffffffffffffffffffffffffffffffffffffff03821115613df057613def613ff3565b5b828201905092915050565b6000613e0682613eca565b9150613e1183613eca565b925082613e2157613e20614022565b5b828204905092915050565b6000613e3782613eca565b9150613e4283613eca565b925082821015613e5557613e54613ff3565b5b828203905092915050565b6000613e6b82613eaa565b9050919050565b60008115159050919050565b60007fffffffff0000000000000000000000000000000000000000000000000000000082169050919050565b600073ffffffffffffffffffffffffffffffffffffffff82169050919050565b6000819050919050565b82818337600083830152505050565b60005b83811015613f01578082015181840152602081019050613ee6565b83811115613f10576000848401525b50505050565b60006002820490506001821680613f2e57607f821691505b60208210811415613f4257613f41614051565b5b50919050565b613f51826140d1565b810181811067ffffffffffffffff82111715613f7057613f6f614080565b5b80604052505050565b6000613f8482613eca565b91507fffffffffffffffffffffffffffffffffffffffffffffffffffffffffffffffff821415613fb757613fb6613ff3565b5b600182019050919050565b6000613fcd82613eca565b9150613fd883613eca565b925082613fe857613fe7614022565b5b828206905092915050565b7f4e487b7100000000000000000000000000000000000000000000000000000000600052601160045260246000fd5b7f4e487b7100000000000000000000000000000000000000000000000000000000600052601260045260246000fd5b7f4e487b7100000000000000000000000000000000000000000000000000000000600052602260045260246000fd5b7f4e487b7100000000000000000000000000000000000000000000000000000000600052604160045260246000fd5b600060033d11156140ce5760046000803e6140cb6000516140e2565b90505b90565b6000601f19601f8301169050919050565b60008160e01c9050919050565b7f455243313135353a207472616e7366657220746f206e6f6e204552433131353560008201527f526563656976657220696d706c656d656e746572000000000000000000000000602082015250565b7f455243313135353a2063616c6c6572206973206e6f7420746f6b656e206f776e60008201527f6572206e6f7220617070726f7665640000000000000000000000000000000000602082015250565b7f455243313135353a204552433131353552656365697665722072656a6563746560008201527f6420746f6b656e73000000000000000000000000000000000000000000000000602082015250565b7f5061757361626c653a206e6f7420706175736564000000000000000000000000600082015250565b7f6275726e4e46543a20436f6e747261637420686173206265656e20706175736560008201527f6400000000000000000000000000000000000000000000000000000000000000602082015250565b7f4f776e61626c653a206e6577206f776e657220697320746865207a65726f206160008201527f6464726573730000000000000000000000000000000000000000000000000000602082015250565b7f68747470733a2f2f676174657761792e70696e6174612e636c6f75642f69706660008201527f732f516d56676b7659336d34536a3445584d315543754835774c5673447a6a6660208201527f37315657486471526e743545334261502f000000000000000000000000000000604082015250565b7f5f6265666f7265546f6b656e5472616e736665723a20436f6e7472616374206860008201527f6173206265656e20706175736564000000000000000000000000000000000000602082015250565b7f455243313135353a206275726e20616d6f756e7420657863656564732062616c60008201527f616e636500000000000000000000000000000000000000000000000000000000602082015250565b7f737570706f727473496e746572666163653a20436f6e7472616374206861732060008201527f6265656e20706175736564000000000000000000000000000000000000000000602082015250565b7f455243313135355061757361626c653a20746f6b656e207472616e736665722060008201527f7768696c65207061757365640000000000000000000000000000000000000000602082015250565b7f455243313135353a2061646472657373207a65726f206973206e6f742061207660008201527f616c6964206f776e657200000000000000000000000000000000000000000000602082015250565b7f5061757361626c653a2070617573656400000000000000000000000000000000600082015250565b7f455243313135353a207472616e7366657220746f20746865207a65726f20616460008201527f6472657373000000000000000000000000000000000000000000000000000000602082015250565b7f455243313135353a206275726e2066726f6d20746865207a65726f206164647260008201527f6573730000000000000000000000000000000000000000000000000000000000602082015250565b7f455243313135353a20696e73756666696369656e742062616c616e636520666f60008201527f72207472616e7366657200000000000000000000000000000000000000000000602082015250565b7f2e6a736f6e000000000000000000000000000000000000000000000000000000600082015250565b7f4f776e61626c653a2063616c6c6572206973206e6f7420746865206f776e6572600082015250565b7f6d696e744e46543a20436f6e747261637420686173206265656e20706175736560008201527f6400000000000000000000000000000000000000000000000000000000000000602082015250565b7f455243313135355072657365744d696e7465725061757365723a206d7573742060008201527f686176652070617573657220726f6c6520746f20756e70617573650000000000602082015250565b7f636865636b49643a20436f6e747261637420686173206265656e20706175736560008201527f6400000000000000000000000000000000000000000000000000000000000000602082015250565b7f455243313135355072657365744d696e7465725061757365723a206d7573742060008201527f686176652070617573657220726f6c6520746f20706175736500000000000000602082015250565b7f455243313135353a2073657474696e6720617070726f76616c2073746174757360008201527f20666f722073656c660000000000000000000000000000000000000000000000602082015250565b7f455243313135353a206163636f756e747320616e6420696473206c656e67746860008201527f206d69736d617463680000000000000000000000000000000000000000000000602082015250565b7f455243313135353a2069647320616e6420616d6f756e7473206c656e6774682060008201527f6d69736d61746368000000000000000000000000000000000000000000000000602082015250565b7f455243313135353a206d696e7420746f20746865207a65726f2061646472657360008201527f7300000000000000000000000000000000000000000000000000000000000000602082015250565b7f6d61726b65745472616e736665723a20436f6e7472616374206861732062656560008201527f6e20706175736564000000000000000000000000000000000000000000000000602082015250565b600060443d10156148e257614965565b6148ea613c5d565b60043d036004823e80513d602482011167ffffffffffffffff82111715614912575050614965565b808201805167ffffffffffffffff8111156149305750505050614965565b80602083010160043d03850181111561494d575050505050614965565b61495c82602001850186613f48565b82955050505050505b90565b61497181613e60565b811461497c57600080fd5b50565b61498881613e72565b811461499357600080fd5b50565b61499f81613e7e565b81146149aa57600080fd5b50565b6149b681613eca565b81146149c157600080fd5b5056fea2646970667358221220b5e154dc5c2ed54ca6e9e1463da494f2cdc06f8c0a0caaa73ca0ef2e786dba2e64736f6c63430008040033697066733a2f2f516d55794d79654e43464d513743513245626d76514a3776677541634556734535503255425435746275754271432f7b69647d2e6a736f6e",
  "linkReferences": {},
  "deployedLinkReferences": {}
}